:020000040800F2
:10000000005000208D0D0008710D0008730D0008D0
:10001000750D0008770D0008790D0008000000003C
:100020000000000000000000000000007B0D000840
:100030007D0D0008000000007F0D0008810D000804
:10004000D50D0008D50D0008D50D0008D50D000808
:10005000D50D0008D50D0008D50D0008D50D0008F8
:10006000D50D0008D50D0008D50D0008D50D0008E8
:10007000D50D0008D50D0008D50D0008D50D0008D8
:10008000D50D0008D50D0008D50D0008D50D0008C8
:10009000D50D0008D50D0008D50D0008D50D0008B8
:1000A000D50D0008D50D0008D50D0008D50D0008A8
:1000B000D50D0008D50D0008D50D0008D50D000898
:1000C000D50D0008D50D0008D50D0008D50D000888
:1000D000D50D0008D50D0008D50D0008D50D000878
:1000E000D50D0008D50D0008D50D00080000000052
:1000F0000000000000000000000000000000000000
:0C01000000000000000000005FF808F1A3
:10010C0010B5054C237833B9044B13B10448AFF345
:10011C0000800123237010BD70000020000000003F
:10012C00881C000808B5034B1BB103490348AFF307
:10013C00008008BD0000000074000020881C00082E
:10014C0000B583B0204B9A6942F001029A619B6919
:10015C0003F001030193019B032000F0F7F8002248
:10016C0011466FF00B0000F003F9002211466FF0FE
:10017C000A0000F0FDF8002211466FF0090000F0B3
:10018C00F7F8002211466FF0040000F0F1F800229D
:10019C0011466FF0030000F0EBF8002211466FF0EF
:1001AC00010000F0E5F8002211464FF0FF3000F09E
:1001BC00DFF8064A536823F0E06343F08063536032
:1001CC0003B05DF804FB00BF0010024000000140CA
:1001DC000268134B9A4200D0704710B586B003F5F5
:1001EC0060439A6942F480529A619B6903F480538C
:1001FC000193019BB02302930223039303230593E2
:10020C00084C02A9204600F09DFC402302930023D9
:10021C000393049302A9204600F094FC06B010BD91
:10022C00003001400008014084B00F4B9A6942F045
:10023C0010029A619A6902F010020192019A9A696D
:10024C0042F020029A619A6902F020020292029A0C
:10025C009A6942F004029A619B6903F004030393C8
:10026C00039B04B0704700BF00100240FEE7000083
:10027C0008B50E480E4B03604FF4827343600023A5
:10028C008360C360036143614FF480228261C36168
:10029C000362436283620A23C36200F011FC00B95B
:1002AC0008BDB8210348FFF7E1FF00BF980000200C
:1002BC0000300140B41C000800B591B00223069335
:1002CC0001230A9310230B9300230D9306A800F02F
:1002DC000FF9F0B90F2301930021029103910491BE
:1002EC00059101A800F02AFBB8B900F0E3FB0D4B17
:1002FC00A3FB0030800900F06FF8042000F082F8B6
:10030C00002211464FF0FF3000F032F811B05DF8CA
:10031C0004FB88210448FFF7A9FF96210248FFF748
:10032C00A5FF00BFD34D6210B41C000808B500F047
:10033C00A5F8FFF7C1FFFFF777FFFFF799FF02481A
:10034C0000F070FDFBE700BFC01C0008074AD36833
:10035C0023F4E0631B041B0C000200F4E060184360
:10036C0040F0BF6040F40030D060704700ED00E01A
:10037C0030B4174BDB68C3F30223C3F10704042C1E
:10038C0028BF04241D1D062D18D9033B4FF0FF3543
:10039C0005FA04F421EA0401994005FA03F322EA70
:1003AC000303194300280BDB0901C9B200F16040BB
:1003BC0000F5614080F8001330BC70470023E5E77E
:1003CC0000F00F000901C9B2024B1954F4E700BF49
:1003DC0000ED00E014ED00E00138B0F1807F0AD2AE
:1003EC00064B5860064AF02182F8231000209860D2
:1003FC0007221A6070470120704700BF10E000E030
:10040C0000ED00E0042805D0054A136823F004032E
:10041C0013607047024A136843F00403136070477B
:10042C0010E000E0704708B5FFF7FCFF08BD0000C6
:10043C0010B504460E4B18784FF47A73B3FBF0F3F7
:10044C000C4A1068B0FBF3F0FFF7C6FF68B90F2C2D
:10045C0001D901200AE0002221464FF0FF30FFF7BE
:10046C0087FF054B1C60002000E0012010BD00BF81
:10047C0000000020080000200400002008B5074AF6
:10048C00136843F0100313600320FFF75FFF002095
:10049C00FFF7CEFFFFF754FE002008BD00200240FE
:1004AC00034A1168034B1B780B441360704700BF61
:1004BC00F000002000000020014B1868704700BFBE
:1004CC00F000002082B0084B1B68084AA2FB0323F3
:1004DC005B0A00FB03F0019000BF019B5A1E0192C6
:1004EC00002BF9D102B0704708000020D34D6210E8
:1004FC0070B582B00446036813F0010F2CD0AB4BDF
:10050C005B6803F00C03042B1DD0A84B5B6803F055
:10051C000C03082B12D06368B3F5803F41D0002B3D
:10052C0055D103F1804303F504331A6822F4803269
:10053C001A601A6822F480221A6037E09B4B5B68C1
:10054C0013F4803FE7D0994B1B6813F4003F03D0A2
:10055C006368002B00F0AE81236813F0020F76D095
:10056C00924B5B6813F00C0F5FD0904B5B6803F001
:10057C000C03082B54D02369002B00F08A808C4B81
:10058C0001221A60FFF798FF0546884B1B6813F091
:10059C00020F75D1FFF790FF401B0228F5D90320FD
:1005AC008BE1824A136843F480331360636843B36E
:1005BC00FFF782FF05467D4B1B6813F4003FCBD140
:1005CC00FFF77AFF401B6428F5D9032075E1B3F5DA
:1005DC00A02F09D0754B1A6822F480321A601A6861
:1005EC0022F480221A60E1E703F18043A3F53C3347
:1005FC001A6842F480221A601A6842F480321A6037
:10060C00D4E7FFF759FF0546684B1B6813F4003F0E
:10061C00A2D0FFF751FF401B6428F5D903204CE111
:10062C00624B5B6813F4803FA5D1604B1B6813F0E1
:10063C00020F04D02369012B01D001203DE15B4A5C
:10064C00136823F0F803616943EAC103136023685C
:10065C0013F0080F32D0A369002B5BD0554B01224D
:10066C001A60FFF729FF0546504B5B6A13F0020F27
:10067C0021D1FFF721FF401B0228F5D903201CE1F3
:10068C004A4A136823F0F803616943EAC103136013
:10069C00DDE7474B00221A60FFF70EFF0546434B80
:1006AC001B6813F0020FD2D0FFF706FF401B022885
:1006BC00F5D9032001E10120FFF704FF236813F0B3
:1006CC00040F00F09780394BDB6913F0805F33D156
:1006DC00364BDA6942F08052DA61DB6903F0805301
:1006EC000193019B0125344B1B6813F4807F25D0AB
:1006FC00E368012B36D0002B4CD103F1804303F57A
:10070C0004331A6A22F001021A621A6A22F00402F5
:10071C001A622CE0274B00221A60FFF7CDFE05462B
:10072C00224B5B6A13F0020FC8D0FFF7C5FE401BCB
:10073C000228F5D90320C0E00025D4E71E4A13682F
:10074C0043F480731360FFF7B7FE06461A4B1B6821
:10075C0013F4807FCCD1FFF7AFFE801B6428F5D952
:10076C000320AAE0114A136A43F001031362E36801
:10077C0073B3FFF7A1FE06460C4B1B6A13F0020F76
:10078C0037D1FFF799FE801B41F288339842F3D999
:10079C00032092E0052B11D0044B1A6A22F00102BF
:1007AC001A621A6A22F004021A62E0E70010024090
:1007BC00000042428004424200700040414B1A6AE1
:1007CC0042F004021A621A6A42F001021A62CEE77F
:1007DC00FFF772FE06463B4B1B6A13F0020F08D064
:1007EC00FFF76AFE801B41F288339842F3D903204D
:1007FC0063E0E5B9E369002B5ED0324A526802F03F
:10080C000C02082A5BD0022B17D02F4B00221A6047
:10081C00FFF752FE04462B4B1B6813F0007F47D0AA
:10082C00FFF74AFE001B0228F5D9032045E0254AB4
:10083C00D36923F08053D361DCE7234B00221A6089
:10084C00FFF73AFE05461F4B1B6813F0007F06D0DE
:10085C00FFF732FE401B0228F5D903202DE0236A56
:10086C00B3F5803F1AD017494B6823F47413226AEE
:10087C00606A024313434B60134B01221A60FFF76B
:10088C001BFE04460F4B1B6813F0007F0ED1FFF7C5
:10089C0013FE001B0228F5D903200EE0094A536809
:1008AC0023F40033A1680B435360DCE7002004E021
:1008BC00002002E0012000E0002002B070BD012009
:1008CC00FBE700BF001002406000424210B487B04A
:1008DC00164C94E80F000DF1180C0CE90F00238A4C
:1008EC00ADF80430124B5B6803F00C02082A1AD1E5
:1008FC00C3F38342624412F8102C13F4803F05D1E9
:10090C000C4800FB02F007B010BC7047084B5B684A
:10091C00C3F34043634413F8143C074800FB02F054
:10092C00B0FBF3F0EFE70448EDE700BFA01C0008B4
:10093C000010024000093D0000127A00594B1B6860
:10094C0003F007038B420CD2564A136823F00703BB
:10095C000B431360136803F007038B4201D0012093
:10096C00704770B5036813F0020F06D04E4A5368F7
:10097C0023F0F0038468234353600C460546036858
:10098C0013F0010F52D04368012B23D0022B28D037
:10099C00454A126812F0020F00F0828042494A6800
:1009AC0022F0030213434B60FFF786FD06466B688B
:1009BC00012B1DD0022B2AD03B4B5B6813F00C0F84
:1009CC0034D0FFF779FD801B41F288339842F3D97C
:1009DC00032064E0344A126812F4003FDED1012097
:1009EC005DE0314A126812F0007FD7D1012056E049
:1009FC002D4B5B6803F00C03042B17D0FFF75CFD49
:100A0C00801B41F288339842F2D9032047E0264BF1
:100A1C005B6803F00C03082B08D0FFF74DFD801B1F
:100A2C0041F288339842F2D9032038E01D4B1B6801
:100A3C0003F00703A3420CD91A4A136823F00703E7
:100A4C0023431360136803F00703A34201D0012072
:100A5C0025E02B6813F0040F06D0134A536823F4D7
:100A6C00E063E9680B4353602B6813F0080F07D061
:100A7C000D4A536823F46053296943EAC103536058
:100A8C00FFF724FF084B5B68C3F30313074AD35CDF
:100A9C00D840074B18600020FFF7CAFC002070BD3F
:100AAC000120FCE70020024000100240C81C000896
:100ABC0008000020014B1868704700BF0800002098
:100ACC0000283CD010B504460023836290F85130C6
:100ADC00002B31D0022384F851302268136823F0A4
:100AEC00400313606368A2681343E26813432269EE
:100AFC00134362691343A26902F400721343E2695F
:100B0C001343226A1343A16A22680B431360638B5D
:100B1C0003F00403616A22680B4353602368E26AA2
:100B2C001A612268D36923F40063D36100206065E5
:100B3C00012384F8513010BDFFF74AFBCAE70120AE
:100B4C0070470000F0B482B000263546A1E0002CBE
:100B5C0059D0012C00D1CE68FF2B68D88446FF2BCE
:100B6C0068D8AC00DCF800200F27A74022EA070267
:100B7C0006FA04F42243CCF800204A6812F0805F95
:100B8C0000F086805E4A946944F001049461926995
:100B9C0002F001020192019AAC08A71C594A52F8C2
:100BAC00272005F00307BF004FF00F0C0CFA07FCD1
:100BBC0022EA0C0C544A904242D002F580629042D8
:100BCC007FD002F5806290427DD002F58062904227
:100BDC0034D0042235E04D4FBC4214D00BD94C4FCD
:100BEC00BC4210D007F58037BC420CD0A7F580175B
:100BFC00BC42B1D107E0A7F58017BC4203D007F582
:100C0C008037BC42A8D18C687CB1012C08D04261E1
:100C1C000826A1E7CE6808369EE7CE680C369BE71F
:100C2C000261082698E7002696E7042694E700F16F
:100C3C00040C94E7A5F10804A40093E7032200E058
:100C4C000022BA4042EA0C0202342E4F47F824200C
:100C5C004A6812F4803F38D02E4C22681A43226026
:100C6C004A6812F4003F36D02A4C62681A4362601C
:100C7C004A6812F4801F34D0264CA2681A43A26032
:100C8C004A6812F4001F32D0224CE2681343E3602E
:100C9C0001350F2D31D80122AA400B6813409A421E
:100CAC00F6D14C68122CB8D095D8022CB2D07FF665
:100CBC004EAF032CB7D0112C7FF44EAFCE68043658
:100CCC004AE70122BDE70222BBE7124C226822EA66
:100CDC0003022260C4E70F4C626822EA03026260DE
:100CEC00C6E70C4CA26822EA0302A260C8E7094CD2
:100CFC00E26822EA0303E360CAE702B0F0BC704783
:100D0C0000100240000001400008014000002110CA
:100D1C0000003110000401400F4B1A6842F0010230
:100D2C001A6059680D4A0A405A601A6822F0847297
:100D3C0022F480321A601A6822F480221A605A68EF
:100D4C0022F4FE025A604FF41F029A60044B4FF0DB
:100D5C0000629A60704700BF001002400000FFF86C
:100D6C0000ED00E07047FEE7FEE7FEE7FEE77047A8
:100D7C007047704708B5FFF793FBFFF754FB08BDAE
:100D8C00002103E00B4B5B58435004310A480B4BDA
:100D9C0042189A42F6D30A4A02E0002342F8043B76
:100DAC00084B9A42F9D3FFF7B7FF00F00FF8FFF7A3
:100DBC00BDFA7047781D000800000020700000206C
:100DCC0070000020F8000020FEE7000070B5002540
:100DDC000C4E0D4CA41BA410A54209D100F04EFFE3
:100DEC0000250A4E0A4CA41BA410A54205D170BDC7
:100DFC0056F8253098470135EEE756F825309847D8
:100E0C000135F2E7701D0008701D0008701D000808
:100E1C00741D000803460244934200D1704703F846
:100E2C00011BF9E70FB40A4B13B51C6824B1A36975
:100E3C0013B9204600F04EF805AB049AA168204681
:100E4C00019300F053F902B0BDE8104004B07047B4
:100E5C000C000020002310B50446C0E90033836069
:100E6C0081814366C281C0E904338361194608223B
:100E7C005C30FFF7CFFF054B24626362044BA36227
:100E8C00044BE362044B236310BD00BF55160008EE
:100E9C0077160008AF160008D3160008014900F0B9
:100EAC0085B800BFAD19000870B568254A1E5543BA
:100EBC000E4605F1740100F097F8044640B100218C
:100ECC00C0E900160C30A06005F16802FFF7A2FF24
:100EDC00204670BD836910B5044633BBC0E912339C
:100EEC000365124B124A1B688262984204BF0123AD
:100EFC00836100F01FF86060204600F01BF8A060D2
:100F0C00204600F017F80022E06004216068FFF72B
:100F1C00A1FF01220921A068FFF79CFF02221221E8
:100F2C00E068FFF797FF0123A36110BDD81C0008F0
:100F3C00A90E0008F8B51B4B07461E68B36913B918
:100F4C003046FFF7C7FF4836D6E90134013B03D5DD
:100F5C00336833B13668F7E7B4F90C506DB16834C7
:100F6C00F4E704213846FFF79FFF30600028F1D1E9
:100F7C000C2304463B602046F8BD0B4B6566C4E968
:100F8C000055A560C4E90335C4E905550822294676
:100F9C0004F15C00FFF73EFFC4E90D55C4E912559E
:100FAC00E9E700BFD81C00080100FFFF2DE9F8435A
:100FBC0080468946002600F1480414B93046BDE845
:100FCC00F883D4E90175013F01D52468F5E7AB89B5
:100FDC00012B07D9B5F90E30013303D02946404611
:100FEC00C84706436835EEE770B5CD1C25F0030500
:100FFC0008350C2D38BF0C25002D064601DBA94207
:10100C0003D90C233360002070BD00F077FD214A1A
:10101C001468214691B9204C23681BB9304600F066
:10102C0003FB20602946304600F0FEFA431C24D115
:10103C000C233046336000F062FDE4E70B685B1B69
:10104C0018D40B2B0FD90B60CC18CD50304600F0B8
:10105C0056FD04F10B00231D20F00700C31AD3D05A
:10106C005A42E250D0E74B688C4216BF6360136063
:10107C000C46EBE70C464968CCE7C41C24F003048F
:10108C00A04205D0211A304600F0CEFA0130CFD064
:10109C002560DBE78C00002090000020936810B4E2
:1010AC00013B002B936007DA9469A34201DB0A2908
:1010BC0002D110BC00F00CBB1368581C10601970E6
:1010CC00084610BC7047F8B506460F461446D518AE
:1010DC00AC4201D1002007E03A4614F8011B30461F
:1010EC00FFF7DCFF431CF3D1F8BD00002DE9F04FF6
:1010FC000C469DB017461D46064618B183690BB9C0
:10110C00FFF7E8FE7C4B9C4258D17468A389180702
:10111C005ED52369002B5BD00023099320238DF827
:10112C00293030234FF0010B8DF82A300395B84647
:10113C00454615F8013B0BB1252B54D1B8EB070AEA
:10114C000BD053463A4621463046FFF7BCFF0130E0
:10115C0000F0C280099B5344099398F80030002B8F
:10116C0000F0BA8000234FF0FF32CDE90523049341
:10117C0007938DF853301A93A846052218F8011BD3
:10118C005E4800F0ADFC049B78BBD90644BF20221E
:10119C008DF853201A0744BF2B228DF853202A7840
:1011AC002A2A2AD0A84600200A25079A414611F877
:1011BC00013B303B092B69D960B324E0504B9C4276
:1011CC0001D1B468A2E74F4B9C4208BFF4689DE77D
:1011DC002146304600F0E0FA00289DD04FF0FF3059
:1011EC001DB0BDE8F08FA846A2E7444A4546801AD8
:1011FC000BFA00F018430490BEE7039A111D126815
:10120C000391002A01DB079204E0524243F00203EF
:10121C000792049398F800302E2B0ED198F80130D9
:10122C002A2B38D1039B08F102081A1D1B68039264
:10123C00002BB8BF4FF0FF330593334D032298F8C2
:10124C000010284600F04CFC40B14023401B03FA30
:10125C0000F0049B08F101080343049398F8001074
:10126C0006222A4808F101078DF8281000F038FCF6
:10127C00002837D0264B1BBB039B073323F00703F7
:10128C0008330393099B4B44099350E705FB023247
:10129C00012088468AE700230A25194608F101082F
:1012AC000593404610F8012B303A092A03D9002B3C
:1012BC00C3D00591C1E705FB012101238046F0E76E
:1012CC0003AB00932246134B04A93046AFF30080C6
:1012DC00B0F1FF3F8146D5D1A3895B063FF57EAFC8
:1012EC0009987DE703AB009322460A4B04A93046CC
:1012FC0000F088F8ECE700BFFC1C00083C1D00085F
:10130C001C1D0008DC1C0008421D0008461D0008BE
:10131C0000000000D31000082DE9F04791461F464D
:10132C008A680B6906469342B8BF1346C9F8003069
:10133C0091F843200C46DDF8208012B10133C9F836
:10134C0000302368990642BFD9F800300233C9F83F
:10135C000030256815F0060507D104F1190AE36879
:10136C00D9F800209B1AAB4229DC94F84330226850
:10137C00003318BF012392062ED404F143023946E0
:10138C003046C047013021D02368E56803F00603DE
:10139C00042B18BF0025D9F800204FF0000908BF16
:1013AC00AD1AA368226908BF25EAE5759342C4BF4C
:1013BC009B1AED181A344D451AD1002008E0012370
:1013CC00524639463046C047013003D14FF0FF300A
:1013DC00BDE8F0870135C2E73020E11881F8430001
:1013EC005A1C94F845102244023382F84310C4E787
:1013FC000123224639463046C0470130E6D009F178
:10140C000109D8E72DE9F04301F1430C0C46097EA4
:10141C0085B06E291746064698460C9A00F0B380A4
:10142C0022D8632936D00AD8002900F0B98058296F
:10143C0000F0838004F1420584F8421032E0642904
:10144C0001D06929F6D120681368050603F104015F
:10145C002AD51B681160002B03DA2D225B4284F81D
:10146C0043206F480A2239E0732900F09D8008D888
:10147C006F2920D07029DDD1236843F0200323602D
:10148C0003E0752917D07829D4D17823654884F8DE
:10149C00453055E0136804F14205191D1B681160B5
:1014AC0084F8423001238CE01B6810F0400F11606F
:1014BC0018BF1BB2CFE713682568181D10602806EB
:1014CC0001D51B6802E06806FBD51B886F2914BF89
:1014DC000A2208225248002184F843106568002D26
:1014EC00A560C0F29580216821F004012160002BD9
:1014FC003DD1002D40F08E806546082A0BD1236823
:10150C00DB0708D5236962689A42DEBF302305F8F1
:10151C00013C05F1FF35ACEB05032361CDF80080F0
:10152C003B4603AA21463046FFF7F6FE01304DD16B
:10153C004FF0FF3005B0BDE8F083394884F8451012
:10154C00136821681D1D1B6815600A060BD5CA0798
:10155C0044BF41F0200121601BB9226822F0200217
:10156C0022601022B7E74D0648BF9BB2EFE76546F5
:10157C00B3FBF2F102FB1133C35C05F8013D0B46E2
:10158C000029F5D1B9E713682568181D6169106049
:10159C0028061B6801D5196002E06A06FBD5198084
:1015AC00002365462361B9E71368191D11601D6896
:1015BC0062680021284600F093FA08B1401B606075
:1015CC0063682361002384F84330A7E723692A4624
:1015DC0039463046C0470130AAD023689B0713D444
:1015EC00E068039B9842B8BF1846A3E701234A461C
:1015FC0039463046C04701309AD00135E368039A2A
:10160C009B1AAB42F2DCEBE7002504F11909F5E774
:10161C00002BACD1037804F1420584F842306CE71E
:10162C004D1D00085E1D000838B50023054C05460D
:10163C000846236000F00CFB431C02D1236803B165
:10164C002B6038BDF400002010B50C46B1F90E101B
:10165C0000F0A2FA0028ABBF636DA3891B1823F41A
:10166C008053ACBF6365A38110BD2DE9F0411F46CB
:10167C008B890546DB050C46164605D50223002250
:10168C00B1F90E1000F0B6F9A389324623F4805359
:10169C00A381B4F90E103B462846BDE8F04100F09A
:1016AC0069B810B50C46B1F90E1000F0A3F9431C43
:1016BC00A38915BF606523F4805343F48053A38141
:1016CC0018BFA38110BDB1F90E1000F0D3B8000003
:1016DC00F8B50E461446054618B183690BB9FFF7E9
:1016EC00F9FB214B9C422AD16C68A369A360A389A6
:1016FC001A072ED5236963B323692068F6B2C01A82
:10170C0063693746834204DC2146284600F048F9D9
:10171C0028BBA3680130013BA36023685A1C2260DC
:10172C001E706369834204D0A389DB0719D50A2E86
:10173C0017D12146284600F033F990B10FE00B4B3E
:10174C009C4201D1AC68D0E7094B9C4208BFEC68C5
:10175C00CBE72146284600F01FF80028CCD04FF0EC
:10176C00FF373846F8BD00BFFC1C00081C1D0008E4
:10177C00DC1C000838B50546084611460022054C0D
:10178C0022601A4600F072FA431C02D1236803B19E
:10179C002B6038BDF4000020324B70B51D68064636
:1017AC000C4625B1AB6913B92846FFF793FB2E4BBA
:1017BC009C420FD16C68B4F90C309AB215072CD43A
:1017CC00D00611D40922326043F04003A3814FF0BC
:1017DC00FF303EE0254B9C4201D1AC68EBE7244B3B
:1017EC009C4208BFEC68E6E7510712D5616B41B12A
:1017FC0004F14403994202D0304600F081F90023F1
:10180C006363A38923F02403A3810023636023690A
:10181C002360A38943F00803A38123694BB9A389EF
:10182C0003F42073B3F5007F03D02146304600F05B
:10183C0017F9A28912F001030CD00023A36063698D
:10184C005B42A361236953B9B4F90C3013F08000E7
:10185C00BAD170BD920758BF6369A360F2E700204C
:10186C00F7E700BF0C000020FC1C00081C1D000842
:10187C00DC1C000838B50023054C054608462360DF
:10188C0000F0BEF9431C02D1236803B12B6038BDB4
:10189C00F40000208A892DE9F041054610070C461A
:1018AC0058D44B68002B05DC0B6C002B02DC0020A1
:1018BC00BDE8F081E66A002EF9D0002312F48052C4
:1018CC002F68216A2B6032D0606DA3895A0705D529
:1018DC006368C01A636B0BB1236CC01A00230246F9
:1018EC00E66A216A2846B047431CA38906D12968B9
:1018FC001D2948D8294ACA40D60744D5002262601F
:10190C002269D904226004D5421C01D12B6803B989
:10191C006065616B2F600029C9D004F144039942C2
:10192C0002D0284600F0ECF800206063C0E70123E9
:10193C002846B047411CC8D12B68002BC5D01D2BA5
:10194C0001D0162B01D12F60B1E7A38943F04003DE
:10195C00A381ADE70F69002FA9D0930718BF00230F
:10196C000E6808BF4B69A6EB07080F608B60B8F1D7
:10197C00000F9CDD43463A46216A2846A66AB047CA
:10198C00002806DCA38943F04003A3814FF0FF300D
:10199C008EE70744A8EB0008E9E700BF01004020F0
:1019AC0038B50B6905460C46DBB118B183690BB928
:1019BC00FFF790FA0C4B9C4209D16C68B4F90C30CF
:1019CC007BB121462846BDE83840FFF763BF074B83
:1019DC009C4201D1AC68F1E7054B9C4208BFEC6816
:1019EC00ECE7002038BD00BFFC1C00081C1D0008E3
:1019FC00DC1C000838B50546084611460022054C8B
:101A0C0022601A4600F014F9431C02D1236803B17A
:101A1C002B6038BDF400002070B50E46B1F90E10E5
:101A2C0096B0002914461D4607DA00232B60B389B3
:101A3C001A0610D44FF480630EE06A4600F0BEF82C
:101A4C000028F2DB019A02F47042A2F500535A42CC
:101A5C005A412A60EEE740230020236016B070BD87
:101A6C008B8973B59D0706460C4607D504F14703D1
:101A7C00236023610123636102B070BD01AB6A4630
:101A8C00FFF7CAFF009905463046FFF7ADFA48B993
:101A9C00B4F90C309A05EFD423F0030343F002039E
:101AAC00A381E3E70D4BB362A389206043F080036D
:101ABC00A381009B20616361019B5BB1B4F90E10A3
:101ACC00304600F08DF828B1A38923F0030343F0CE
:101ADC000103A381A3891D43A581CDE7A90E0008AD
:101AEC0010B5C9B202449042034601D1002303E071
:101AFC001C7801308C42F6D1184610BD70477047E7
:101B0C0038B50546002943D051F8043C0C1F002B76
:101B1C00B8BFE418FFF7F2FF1E4A1368104633B93A
:101B2C00636014602846BDE83840FFF7E8BFA34265
:101B3C000BD921686218934201BF1A685B6852186E
:101B4C00226063600460EDE713465A680AB1A24252
:101B5C00FAD919685818A0420BD1206801445818BA
:101B6C0082421960DED110685268014419605A60D3
:101B7C00D8E702D90C232B60D4E7206821188A42BD
:101B8C0001BF116852680918216062605C60C9E786
:101B9C0038BD00BF8C00002038B5054608461146FC
:101BAC000022054C22601A4600F04AF8431C02D170
:101BBC00236803B12B6038BDF400002038B5002336
:101BCC00064C054608461146236000F021F8431CDC
:101BDC0002D1236803B12B6038BD00BFF400002094
:101BEC0038B50023054C05460846236000F018F86C
:101BFC00431C02D1236803B12B6038BDF4000020D4
:101C0C005822024B4FF0FF301A607047F40000204E
:101C1C005822024B4FF0FF301A607047F40000203E
:101C2C005822024B00201A60704700BFF4000020BD
:101C3C005822024B4FF0FF301A607047F40000201E
:101C4C005822024B4FF0FF301A607047F40000200E
:101C5C00044A05491368002B08BF0B461844106052
:101C6C001846704794000020F80000205822024BC0
:101C7C004FF0FF301A607047F4000020F8B500BF39
:101C8C00F8BC08BC9E467047F8B500BFF8BC08BC51
:041C9C009E467047A9
:101CA00002030405060708090A0B0C0D0E0F10109D
:101CB000010200005372632F6D61696E2E63000094
:101CC0007465737400000000000000000000000054
:101CD00001020304060708091000002000000000AC
:101CE00000000000000000000000000000000000F4
:101CF00000000000000000000000000000000000E4
:101D000000000000000000000000000000000000D3
:101D100000000000000000000000000000000000C3
:101D200000000000000000000000000000000000B3
:101D3000000000000000000000000000232D302BF8
:101D40002000686C4C0065666745464700303132BC
:101D50003334353637383941424344454600303113
:101D60003233343536373839616263646566000072
:041D70003101000835
:041D74000D01000855
:101D7800010000001000000000A24A04100000202A
:101D880000000000FC1C00081C1D0008DC1C0008EA
:101D9800000000000000000000000000000000003B
:101DA800000000000000000000000000000000002B
:101DB800000000000000000000000000000000001B
:101DC800000000000000000000000000000000000B
:101DD80000000000000000000000000000000000FB
:0400000508000D8D55
:00000001FF
